{
  "address": "0x3FA9F5A2bF41a7F0836fE97d011C81DFEb4AeB81",
  "abi": [
    {
      "inputs": [
        {
          "internalType": "enum ProofVerifierRelayer.DeploymentMode",
          "name": "_deploymentMode",
          "type": "uint8"
        }
      ],
      "stateMutability": "nonpayable",
      "type": "constructor"
    },
    {
      "inputs": [],
      "name": "InvalidSignature",
      "type": "error"
    },
    {
      "anonymous": false,
      "inputs": [
        {
          "indexed": false,
          "internalType": "address",
          "name": "previousAdmin",
          "type": "address"
        },
        {
          "indexed": false,
          "internalType": "address",
          "name": "newAdmin",
          "type": "address"
        }
      ],
      "name": "AdminChanged",
      "type": "event"
    },
    {
      "anonymous": false,
      "inputs": [
        {
          "indexed": true,
          "internalType": "address",
          "name": "beacon",
          "type": "address"
        }
      ],
      "name": "BeaconUpgraded",
      "type": "event"
    },
    {
      "anonymous": false,
      "inputs": [
        {
          "indexed": false,
          "internalType": "uint8",
          "name": "version",
          "type": "uint8"
        }
      ],
      "name": "Initialized",
      "type": "event"
    },
    {
      "anonymous": false,
      "inputs": [
        {
          "indexed": true,
          "internalType": "address",
          "name": "previousOwner",
          "type": "address"
        },
        {
          "indexed": true,
          "internalType": "address",
          "name": "newOwner",
          "type": "address"
        }
      ],
      "name": "OwnershipTransferred",
      "type": "event"
    },
    {
      "anonymous": false,
      "inputs": [],
      "name": "Success",
      "type": "event"
    },
    {
      "anonymous": false,
      "inputs": [
        {
          "indexed": true,
          "internalType": "address",
          "name": "implementation",
          "type": "address"
        }
      ],
      "name": "Upgraded",
      "type": "event"
    },
    {
      "inputs": [],
      "name": "getTrustedForwarder",
      "outputs": [
        {
          "internalType": "address",
          "name": "forwarder",
          "type": "address"
        }
      ],
      "stateMutability": "view",
      "type": "function"
    },
    {
      "inputs": [
        {
          "internalType": "address",
          "name": "_publicPkpAddress",
          "type": "address"
        }
      ],
      "name": "initialize",
      "outputs": [],
      "stateMutability": "nonpayable",
      "type": "function"
    },
    {
      "inputs": [
        {
          "internalType": "address",
          "name": "forwarder",
          "type": "address"
        }
      ],
      "name": "isTrustedForwarder",
      "outputs": [
        {
          "internalType": "bool",
          "name": "",
          "type": "bool"
        }
      ],
      "stateMutability": "view",
      "type": "function"
    },
    {
      "inputs": [],
      "name": "owner",
      "outputs": [
        {
          "internalType": "address",
          "name": "",
          "type": "address"
        }
      ],
      "stateMutability": "view",
      "type": "function"
    },
    {
      "inputs": [
        {
          "internalType": "bytes32",
          "name": "blockNumber",
          "type": "bytes32"
        },
        {
          "internalType": "address",
          "name": "to",
          "type": "address"
        },
        {
          "internalType": "bytes",
          "name": "publicSignal",
          "type": "bytes"
        },
        {
          "internalType": "bytes",
          "name": "identityProof",
          "type": "bytes"
        },
        {
          "internalType": "bytes",
          "name": "membershipProof",
          "type": "bytes"
        },
        {
          "internalType": "bytes",
          "name": "data",
          "type": "bytes"
        }
      ],
      "name": "proveAndRelay",
      "outputs": [],
      "stateMutability": "nonpayable",
      "type": "function"
    },
    {
      "inputs": [],
      "name": "proxiableUUID",
      "outputs": [
        {
          "internalType": "bytes32",
          "name": "",
          "type": "bytes32"
        }
      ],
      "stateMutability": "view",
      "type": "function"
    },
    {
      "inputs": [],
      "name": "publicPkpAddress",
      "outputs": [
        {
          "internalType": "address",
          "name": "",
          "type": "address"
        }
      ],
      "stateMutability": "view",
      "type": "function"
    },
    {
      "inputs": [],
      "name": "renounceOwnership",
      "outputs": [],
      "stateMutability": "nonpayable",
      "type": "function"
    },
    {
      "inputs": [
        {
          "internalType": "address",
          "name": "newOwner",
          "type": "address"
        }
      ],
      "name": "transferOwnership",
      "outputs": [],
      "stateMutability": "nonpayable",
      "type": "function"
    },
    {
      "inputs": [
        {
          "internalType": "address",
          "name": "_newPkpAddress",
          "type": "address"
        }
      ],
      "name": "updatePkpAddress",
      "outputs": [],
      "stateMutability": "nonpayable",
      "type": "function"
    },
    {
      "inputs": [
        {
          "internalType": "address",
          "name": "newImplementation",
          "type": "address"
        }
      ],
      "name": "upgradeTo",
      "outputs": [],
      "stateMutability": "nonpayable",
      "type": "function"
    },
    {
      "inputs": [
        {
          "internalType": "address",
          "name": "newImplementation",
          "type": "address"
        },
        {
          "internalType": "bytes",
          "name": "data",
          "type": "bytes"
        }
      ],
      "name": "upgradeToAndCall",
      "outputs": [],
      "stateMutability": "payable",
      "type": "function"
    }
  ],
  "transactionHash": "0x24d12dee8b453bb78286ea8bddfefefa4a2bafdbf5ac35f226af976ed7b39eb9",
  "args": [
    1
  ],
  "numDeployments": 1,
  "solcInputHash": "71330b0aeac32b09360c0dff57d8e63f",
  "bytecode": "0x60a06040523073ffffffffffffffffffffffffffffffffffffffff1660809073ffffffffffffffffffffffffffffffffffffffff168152503480156200004457600080fd5b50604051620021fb380380620021fb83398181016040528101906200006a9190620001ac565b60006001811115620000815762000080620001de565b5b816001811115620000975762000096620001de565b5b03620000ae57620000ad620000b560201b60201c565b5b50620002f1565b600060159054906101000a900460ff161562000108576040517f08c379a0000000000000000000000000000000000000000000000000000000008152600401620000ff9062000294565b60405180910390fd5b60ff8016600060149054906101000a900460ff1660ff1610156200017d5760ff600060146101000a81548160ff021916908360ff1602179055507f7f26b83ff96e1f2b6a682f133852f6798a09c465da95921460cefb384740249860ff604051620001749190620002d4565b60405180910390a15b565b600080fd5b600281106200019257600080fd5b50565b600081519050620001a68162000184565b92915050565b600060208284031215620001c557620001c46200017f565b5b6000620001d58482850162000195565b91505092915050565b7f4e487b7100000000000000000000000000000000000000000000000000000000600052602160045260246000fd5b600082825260208201905092915050565b7f496e697469616c697a61626c653a20636f6e747261637420697320696e69746960008201527f616c697a696e6700000000000000000000000000000000000000000000000000602082015250565b60006200027c6027836200020d565b915062000289826200021e565b604082019050919050565b60006020820190508181036000830152620002af816200026d565b9050919050565b600060ff82169050919050565b620002ce81620002b6565b82525050565b6000602082019050620002eb6000830184620002c3565b92915050565b608051611ed26200032960003960008181610297015281816103250152818161041f015281816104ad015261055d0152611ed26000f3fe6080604052600436106100a75760003560e01c80638da5cb5b116100645780638da5cb5b1461019b578063c4d66de8146101c6578063ce1b815f146101ef578063dd37019d1461021a578063f2fde38b14610243578063fd6aafc51461026c576100a7565b80633659cfe6146100ac5780634f1ef286146100d557806352d1902d146100f1578063572b6c051461011c5780636a8ce5e314610159578063715018a614610184575b600080fd5b3480156100b857600080fd5b506100d360048036038101906100ce919061127b565b610295565b005b6100ef60048036038101906100ea91906113ee565b61041d565b005b3480156100fd57600080fd5b50610106610559565b6040516101139190611463565b60405180910390f35b34801561012857600080fd5b50610143600480360381019061013e919061127b565b610612565b6040516101509190611499565b60405180910390f35b34801561016557600080fd5b5061016e61066b565b60405161017b91906114c3565b60405180910390f35b34801561019057600080fd5b50610199610691565b005b3480156101a757600080fd5b506101b06106a5565b6040516101bd91906114c3565b60405180910390f35b3480156101d257600080fd5b506101ed60048036038101906101e8919061127b565b6106cf565b005b3480156101fb57600080fd5b5061020461084c565b60405161021191906114c3565b60405180910390f35b34801561022657600080fd5b50610241600480360381019061023c919061150a565b610875565b005b34801561024f57600080fd5b5061026a6004803603810190610265919061127b565b6109ec565b005b34801561027857600080fd5b50610293600480360381019061028e919061127b565b610a6f565b005b7f000000000000000000000000000000000000000000000000000000000000000073ffffffffffffffffffffffffffffffffffffffff163073ffffffffffffffffffffffffffffffffffffffff1603610323576040517f08c379a000000000000000000000000000000000000000000000000000000000815260040161031a9061168a565b60405180910390fd5b7f000000000000000000000000000000000000000000000000000000000000000073ffffffffffffffffffffffffffffffffffffffff16610362610abb565b73ffffffffffffffffffffffffffffffffffffffff16146103b8576040517f08c379a00000000000000000000000000000000000000000000000000000000081526004016103af9061171c565b60405180910390fd5b6103c181610b12565b61041a81600067ffffffffffffffff8111156103e0576103df6112c3565b5b6040519080825280601f01601f1916602001820160405280156104125781602001600182028036833780820191505090505b506000610b1d565b50565b7f000000000000000000000000000000000000000000000000000000000000000073ffffffffffffffffffffffffffffffffffffffff163073ffffffffffffffffffffffffffffffffffffffff16036104ab576040517f08c379a00000000000000000000000000000000000000000000000000000000081526004016104a29061168a565b60405180910390fd5b7f000000000000000000000000000000000000000000000000000000000000000073ffffffffffffffffffffffffffffffffffffffff166104ea610abb565b73ffffffffffffffffffffffffffffffffffffffff1614610540576040517f08c379a00000000000000000000000000000000000000000000000000000000081526004016105379061171c565b60405180910390fd5b61054982610b12565b61055582826001610b1d565b5050565b60007f000000000000000000000000000000000000000000000000000000000000000073ffffffffffffffffffffffffffffffffffffffff163073ffffffffffffffffffffffffffffffffffffffff16146105e9576040517f08c379a00000000000000000000000000000000000000000000000000000000081526004016105e0906117ae565b60405180910390fd5b7f360894a13ba1a3210667c828492db98dca3e2076cc3735a920a3ca505d382bbc60001b905090565b60008060009054906101000a900473ffffffffffffffffffffffffffffffffffffffff1673ffffffffffffffffffffffffffffffffffffffff168273ffffffffffffffffffffffffffffffffffffffff16149050919050565b60c960009054906101000a900473ffffffffffffffffffffffffffffffffffffffff1681565b610699610c8b565b6106a36000610d09565b565b6000603360009054906101000a900473ffffffffffffffffffffffffffffffffffffffff16905090565b60008060159054906101000a900460ff1615905080801561070257506001600060149054906101000a900460ff1660ff16105b80610731575061071130610dcf565b15801561073057506001600060149054906101000a900460ff1660ff16145b5b610770576040517f08c379a000000000000000000000000000000000000000000000000000000000815260040161076790611840565b60405180910390fd5b6001600060146101000a81548160ff021916908360ff16021790555080156107ae576001600060156101000a81548160ff0219169083151502179055505b8160c960006101000a81548173ffffffffffffffffffffffffffffffffffffffff021916908373ffffffffffffffffffffffffffffffffffffffff16021790555080156108485760008060156101000a81548160ff0219169083151502179055507f7f26b83ff96e1f2b6a682f133852f6798a09c465da95921460cefb3847402498600160405161083f91906118b2565b60405180910390a15b5050565b60008060009054906101000a900473ffffffffffffffffffffffffffffffffffffffff16905090565b600083878660405160200161088c9392919061195f565b60405160208183030381529060405280519060200120905060006108b08285610df2565b50905060c960009054906101000a900473ffffffffffffffffffffffffffffffffffffffff1673ffffffffffffffffffffffffffffffffffffffff168173ffffffffffffffffffffffffffffffffffffffff160361093a576040517f8baa579f00000000000000000000000000000000000000000000000000000000815260040160405180910390fd5b6000858051906020012090508773ffffffffffffffffffffffffffffffffffffffff166371f898f38585846040518463ffffffff1660e01b8152600401610983939291906119de565b600060405180830381600087803b15801561099d57600080fd5b505af11580156109b1573d6000803e3d6000fd5b505050507f395a9ab3d1230297d931e1fa224ca597ca0e45f620c1aeb74b512bfcc6f66aab60405160405180910390a1505050505050505050565b6109f4610c8b565b600073ffffffffffffffffffffffffffffffffffffffff168173ffffffffffffffffffffffffffffffffffffffff1603610a63576040517f08c379a0000000000000000000000000000000000000000000000000000000008152600401610a5a90611a8e565b60405180910390fd5b610a6c81610d09565b50565b610a77610c8b565b8060c960006101000a81548173ffffffffffffffffffffffffffffffffffffffff021916908373ffffffffffffffffffffffffffffffffffffffff16021790555050565b6000610ae97f360894a13ba1a3210667c828492db98dca3e2076cc3735a920a3ca505d382bbc60001b610e43565b60000160009054906101000a900473ffffffffffffffffffffffffffffffffffffffff16905090565b610b1a610c8b565b50565b610b497f4910fdfa16fed3260ed0e7147f7cc6da11a60208b5b9406d12a635614ffd914360001b610e4d565b60000160009054906101000a900460ff1615610b6d57610b6883610e57565b610c86565b8273ffffffffffffffffffffffffffffffffffffffff166352d1902d6040518163ffffffff1660e01b8152600401602060405180830381865afa925050508015610bd557506040513d601f19601f82011682018060405250810190610bd29190611ac3565b60015b610c14576040517f08c379a0000000000000000000000000000000000000000000000000000000008152600401610c0b90611b62565b60405180910390fd5b7f360894a13ba1a3210667c828492db98dca3e2076cc3735a920a3ca505d382bbc60001b8114610c79576040517f08c379a0000000000000000000000000000000000000000000000000000000008152600401610c7090611bf4565b60405180910390fd5b50610c85838383610f10565b5b505050565b610c93610f3c565b73ffffffffffffffffffffffffffffffffffffffff16610cb16106a5565b73ffffffffffffffffffffffffffffffffffffffff1614610d07576040517f08c379a0000000000000000000000000000000000000000000000000000000008152600401610cfe90611c60565b60405180910390fd5b565b6000603360009054906101000a900473ffffffffffffffffffffffffffffffffffffffff16905081603360006101000a81548173ffffffffffffffffffffffffffffffffffffffff021916908373ffffffffffffffffffffffffffffffffffffffff1602179055508173ffffffffffffffffffffffffffffffffffffffff168173ffffffffffffffffffffffffffffffffffffffff167f8be0079c531659141344cd1fd0a4f28419497f9722a3daafe3b4186f6b6457e060405160405180910390a35050565b6000808273ffffffffffffffffffffffffffffffffffffffff163b119050919050565b6000806041835103610e335760008060006020860151925060408601519150606086015160001a9050610e2787828585610f4b565b94509450505050610e3c565b60006002915091505b9250929050565b6000819050919050565b6000819050919050565b610e6081610dcf565b610e9f576040517f08c379a0000000000000000000000000000000000000000000000000000000008152600401610e9690611cf2565b60405180910390fd5b80610ecc7f360894a13ba1a3210667c828492db98dca3e2076cc3735a920a3ca505d382bbc60001b610e43565b60000160006101000a81548173ffffffffffffffffffffffffffffffffffffffff021916908373ffffffffffffffffffffffffffffffffffffffff16021790555050565b610f198361102d565b600082511180610f265750805b15610f3757610f35838361107c565b505b505050565b6000610f46611160565b905090565b6000807f7fffffffffffffffffffffffffffffff5d576e7357a4501ddfe92f46681b20a08360001c1115610f86576000600391509150611024565b600060018787878760405160008152602001604052604051610fab9493929190611d21565b6020604051602081039080840390855afa158015610fcd573d6000803e3d6000fd5b505050602060405103519050600073ffffffffffffffffffffffffffffffffffffffff168173ffffffffffffffffffffffffffffffffffffffff160361101b57600060019250925050611024565b80600092509250505b94509492505050565b61103681610e57565b8073ffffffffffffffffffffffffffffffffffffffff167fbc7cd75a20ee27fd9adebab32041f755214dbc6bffa90cc0225b39da2e5c2d3b60405160405180910390a250565b606061108783610dcf565b6110c6576040517f08c379a00000000000000000000000000000000000000000000000000000000081526004016110bd90611dd8565b60405180910390fd5b6000808473ffffffffffffffffffffffffffffffffffffffff16846040516110ee9190611df8565b600060405180830381855af49150503d8060008114611129576040519150601f19603f3d011682016040523d82523d6000602084013e61112e565b606091505b50915091506111568282604051806060016040528060278152602001611e7660279139611197565b9250505092915050565b6000601460003690501015801561117c575061117b33610612565b5b1561119057601436033560601c9050611194565b3390505b90565b606083156111a7578290506111b2565b6111b183836111b9565b5b9392505050565b6000825111156111cc5781518083602001fd5b806040517f08c379a00000000000000000000000000000000000000000000000000000000081526004016112009190611e53565b60405180910390fd5b6000604051905090565b600080fd5b600080fd5b600073ffffffffffffffffffffffffffffffffffffffff82169050919050565b60006112488261121d565b9050919050565b6112588161123d565b811461126357600080fd5b50565b6000813590506112758161124f565b92915050565b60006020828403121561129157611290611213565b5b600061129f84828501611266565b91505092915050565b600080fd5b600080fd5b6000601f19601f8301169050919050565b7f4e487b7100000000000000000000000000000000000000000000000000000000600052604160045260246000fd5b6112fb826112b2565b810181811067ffffffffffffffff8211171561131a576113196112c3565b5b80604052505050565b600061132d611209565b905061133982826112f2565b919050565b600067ffffffffffffffff821115611359576113586112c3565b5b611362826112b2565b9050602081019050919050565b82818337600083830152505050565b600061139161138c8461133e565b611323565b9050828152602081018484840111156113ad576113ac6112ad565b5b6113b884828561136f565b509392505050565b600082601f8301126113d5576113d46112a8565b5b81356113e584826020860161137e565b91505092915050565b6000806040838503121561140557611404611213565b5b600061141385828601611266565b925050602083013567ffffffffffffffff81111561143457611433611218565b5b611440858286016113c0565b9150509250929050565b6000819050919050565b61145d8161144a565b82525050565b60006020820190506114786000830184611454565b92915050565b60008115159050919050565b6114938161147e565b82525050565b60006020820190506114ae600083018461148a565b92915050565b6114bd8161123d565b82525050565b60006020820190506114d860008301846114b4565b92915050565b6114e78161144a565b81146114f257600080fd5b50565b600081359050611504816114de565b92915050565b60008060008060008060c0878903121561152757611526611213565b5b600061153589828a016114f5565b965050602061154689828a01611266565b955050604087013567ffffffffffffffff81111561156757611566611218565b5b61157389828a016113c0565b945050606087013567ffffffffffffffff81111561159457611593611218565b5b6115a089828a016113c0565b935050608087013567ffffffffffffffff8111156115c1576115c0611218565b5b6115cd89828a016113c0565b92505060a087013567ffffffffffffffff8111156115ee576115ed611218565b5b6115fa89828a016113c0565b9150509295509295509295565b600082825260208201905092915050565b7f46756e6374696f6e206d7573742062652063616c6c6564207468726f7567682060008201527f64656c656761746563616c6c0000000000000000000000000000000000000000602082015250565b6000611674602c83611607565b915061167f82611618565b604082019050919050565b600060208201905081810360008301526116a381611667565b9050919050565b7f46756e6374696f6e206d7573742062652063616c6c6564207468726f7567682060008201527f6163746976652070726f78790000000000000000000000000000000000000000602082015250565b6000611706602c83611607565b9150611711826116aa565b604082019050919050565b60006020820190508181036000830152611735816116f9565b9050919050565b7f555550535570677261646561626c653a206d757374206e6f742062652063616c60008201527f6c6564207468726f7567682064656c656761746563616c6c0000000000000000602082015250565b6000611798603883611607565b91506117a38261173c565b604082019050919050565b600060208201905081810360008301526117c78161178b565b9050919050565b7f496e697469616c697a61626c653a20636f6e747261637420697320616c72656160008201527f647920696e697469616c697a6564000000000000000000000000000000000000602082015250565b600061182a602e83611607565b9150611835826117ce565b604082019050919050565b600060208201905081810360008301526118598161181d565b9050919050565b6000819050919050565b600060ff82169050919050565b6000819050919050565b600061189c61189761189284611860565b611877565b61186a565b9050919050565b6118ac81611881565b82525050565b60006020820190506118c760008301846118a3565b92915050565b600081519050919050565b600081905092915050565b60005b838110156119015780820151818401526020810190506118e6565b60008484015250505050565b6000611918826118cd565b61192281856118d8565b93506119328185602086016118e3565b80840191505092915050565b6000819050919050565b6119596119548261144a565b61193e565b82525050565b600061196b828661190d565b91506119778285611948565b602082019150611987828461190d565b9150819050949350505050565b600082825260208201905092915050565b60006119b0826118cd565b6119ba8185611994565b93506119ca8185602086016118e3565b6119d3816112b2565b840191505092915050565b600060608201905081810360008301526119f881866119a5565b9050611a076020830185611454565b611a146040830184611454565b949350505050565b7f4f776e61626c653a206e6577206f776e657220697320746865207a65726f206160008201527f6464726573730000000000000000000000000000000000000000000000000000602082015250565b6000611a78602683611607565b9150611a8382611a1c565b604082019050919050565b60006020820190508181036000830152611aa781611a6b565b9050919050565b600081519050611abd816114de565b92915050565b600060208284031215611ad957611ad8611213565b5b6000611ae784828501611aae565b91505092915050565b7f45524331393637557067726164653a206e657720696d706c656d656e7461746960008201527f6f6e206973206e6f742055555053000000000000000000000000000000000000602082015250565b6000611b4c602e83611607565b9150611b5782611af0565b604082019050919050565b60006020820190508181036000830152611b7b81611b3f565b9050919050565b7f45524331393637557067726164653a20756e737570706f727465642070726f7860008201527f6961626c65555549440000000000000000000000000000000000000000000000602082015250565b6000611bde602983611607565b9150611be982611b82565b604082019050919050565b60006020820190508181036000830152611c0d81611bd1565b9050919050565b7f4f776e61626c653a2063616c6c6572206973206e6f7420746865206f776e6572600082015250565b6000611c4a602083611607565b9150611c5582611c14565b602082019050919050565b60006020820190508181036000830152611c7981611c3d565b9050919050565b7f455243313936373a206e657720696d706c656d656e746174696f6e206973206e60008201527f6f74206120636f6e747261637400000000000000000000000000000000000000602082015250565b6000611cdc602d83611607565b9150611ce782611c80565b604082019050919050565b60006020820190508181036000830152611d0b81611ccf565b9050919050565b611d1b8161186a565b82525050565b6000608082019050611d366000830187611454565b611d436020830186611d12565b611d506040830185611454565b611d5d6060830184611454565b95945050505050565b7f416464726573733a2064656c65676174652063616c6c20746f206e6f6e2d636f60008201527f6e74726163740000000000000000000000000000000000000000000000000000602082015250565b6000611dc2602683611607565b9150611dcd82611d66565b604082019050919050565b60006020820190508181036000830152611df181611db5565b9050919050565b6000611e04828461190d565b915081905092915050565b600081519050919050565b6000611e2582611e0f565b611e2f8185611607565b9350611e3f8185602086016118e3565b611e48816112b2565b840191505092915050565b60006020820190508181036000830152611e6d8184611e1a565b90509291505056fe416464726573733a206c6f772d6c6576656c2064656c65676174652063616c6c206661696c6564a26469706673582212201ae2e1a095674ffc5fb36f523f28015efa76127dece0de0ce71b964ea3821ab864736f6c63430008130033",
  "devdoc": {
    "author": "Mihirsinh Parmar <mihirsinh@curvelabs.eu> <https://github.com/codebuster22>",
    "events": {
      "AdminChanged(address,address)": {
        "details": "Emitted when the admin account has changed."
      },
      "BeaconUpgraded(address)": {
        "details": "Emitted when the beacon is upgraded."
      },
      "Initialized(uint8)": {
        "details": "Triggered when the contract has been initialized or reinitialized."
      },
      "Upgraded(address)": {
        "details": "Emitted when the implementation is upgraded."
      }
    },
    "kind": "dev",
    "methods": {
      "getTrustedForwarder()": {
        "returns": {
          "forwarder": "The address of the Forwarder contract that is being used."
        }
      },
      "initialize(address)": {
        "params": {
          "_publicPkpAddress": "Public Key of Membership Proof PKP"
        }
      },
      "isTrustedForwarder(address)": {
        "params": {
          "forwarder": "The address of the Forwarder contract that is being used."
        },
        "returns": {
          "_0": "isTrustedForwarder `true` if the Forwarder is trusted to forward relayed transactions by this Recipient."
        }
      },
      "owner()": {
        "details": "Returns the address of the current owner."
      },
      "proveAndRelay(bytes32,address,bytes,bytes,bytes,bytes)": {
        "params": {
          "blockNumber": "block number defined by the application",
          "data": "abi encoded data to be sent as payload to implementation/destination contract",
          "identityProof": "signature generated by Identity Proof PKP that serves as proof of wallet ownership",
          "membershipProof": "signature generated by Membership Proof PKP that serves as proof of holding atleast one token",
          "publicSignal": "a hex string of public signal degined by the application",
          "to": "implementation/destination contract address"
        }
      },
      "proxiableUUID()": {
        "details": "Implementation of the ERC1822 {proxiableUUID} function. This returns the storage slot used by the implementation. It is used to validate the implementation's compatibility when performing an upgrade. IMPORTANT: A proxy pointing at a proxiable contract should not be considered proxiable itself, because this risks bricking a proxy that upgrades to it, by delegating to itself until out of gas. Thus it is critical that this function revert if invoked through a proxy. This is guaranteed by the `notDelegated` modifier."
      },
      "renounceOwnership()": {
        "details": "Leaves the contract without owner. It will not be possible to call `onlyOwner` functions anymore. Can only be called by the current owner. NOTE: Renouncing ownership will leave the contract without an owner, thereby removing any functionality that is only available to the owner."
      },
      "transferOwnership(address)": {
        "details": "Transfers ownership of the contract to a new account (`newOwner`). Can only be called by the current owner."
      },
      "upgradeTo(address)": {
        "details": "Upgrade the implementation of the proxy to `newImplementation`. Calls {_authorizeUpgrade}. Emits an {Upgraded} event."
      },
      "upgradeToAndCall(address,bytes)": {
        "details": "Upgrade the implementation of the proxy to `newImplementation`, and subsequently execute the function call encoded in `data`. Calls {_authorizeUpgrade}. Emits an {Upgraded} event."
      }
    },
    "title": "Proof Verifier Relayer",
    "version": 1
  },
  "userdoc": {
    "errors": {
      "InvalidSignature()": [
        {
          "notice": "Error when the proof is invalid"
        }
      ]
    },
    "events": {
      "Success()": {
        "notice": "Event for successful execution relayed call to implementation contract"
      }
    },
    "kind": "user",
    "methods": {
      "getTrustedForwarder()": {
        "notice": ":warning: **Warning** :warning: The Forwarder can have a full control over your Recipient. Only trust verified Forwarder.Method is not a required method to allow Recipients to trust multiple Forwarders. Not recommended yet."
      },
      "initialize(address)": {
        "notice": "Initialize Proof Verifier Relayer"
      },
      "isTrustedForwarder(address)": {
        "notice": ":warning: **Warning** :warning: The Forwarder can have a full control over your Recipient. Only trust verified Forwarder."
      },
      "proveAndRelay(bytes32,address,bytes,bytes,bytes,bytes)": {
        "notice": "Verify proof and relay the payload"
      },
      "publicPkpAddress()": {
        "notice": "Public Key of Membership proof PKP"
      }
    },
    "version": 1
  },
  "storageLayout": {
    "storage": [
      {
        "astId": 7,
        "contract": "contracts/ProofVerifierRelayer.sol:ProofVerifierRelayer",
        "label": "_trustedForwarder",
        "offset": 0,
        "slot": "0",
        "type": "t_address"
      },
      {
        "astId": 654,
        "contract": "contracts/ProofVerifierRelayer.sol:ProofVerifierRelayer",
        "label": "_initialized",
        "offset": 20,
        "slot": "0",
        "type": "t_uint8"
      },
      {
        "astId": 657,
        "contract": "contracts/ProofVerifierRelayer.sol:ProofVerifierRelayer",
        "label": "_initializing",
        "offset": 21,
        "slot": "0",
        "type": "t_bool"
      },
      {
        "astId": 1277,
        "contract": "contracts/ProofVerifierRelayer.sol:ProofVerifierRelayer",
        "label": "__gap",
        "offset": 0,
        "slot": "1",
        "type": "t_array(t_uint256)50_storage"
      },
      {
        "astId": 137,
        "contract": "contracts/ProofVerifierRelayer.sol:ProofVerifierRelayer",
        "label": "_owner",
        "offset": 0,
        "slot": "51",
        "type": "t_address"
      },
      {
        "astId": 257,
        "contract": "contracts/ProofVerifierRelayer.sol:ProofVerifierRelayer",
        "label": "__gap",
        "offset": 0,
        "slot": "52",
        "type": "t_array(t_uint256)49_storage"
      },
      {
        "astId": 636,
        "contract": "contracts/ProofVerifierRelayer.sol:ProofVerifierRelayer",
        "label": "__gap",
        "offset": 0,
        "slot": "101",
        "type": "t_array(t_uint256)50_storage"
      },
      {
        "astId": 951,
        "contract": "contracts/ProofVerifierRelayer.sol:ProofVerifierRelayer",
        "label": "__gap",
        "offset": 0,
        "slot": "151",
        "type": "t_array(t_uint256)50_storage"
      },
      {
        "astId": 2946,
        "contract": "contracts/ProofVerifierRelayer.sol:ProofVerifierRelayer",
        "label": "publicPkpAddress",
        "offset": 0,
        "slot": "201",
        "type": "t_address"
      }
    ],
    "types": {
      "t_address": {
        "encoding": "inplace",
        "label": "address",
        "numberOfBytes": "20"
      },
      "t_array(t_uint256)49_storage": {
        "base": "t_uint256",
        "encoding": "inplace",
        "label": "uint256[49]",
        "numberOfBytes": "1568"
      },
      "t_array(t_uint256)50_storage": {
        "base": "t_uint256",
        "encoding": "inplace",
        "label": "uint256[50]",
        "numberOfBytes": "1600"
      },
      "t_bool": {
        "encoding": "inplace",
        "label": "bool",
        "numberOfBytes": "1"
      },
      "t_uint256": {
        "encoding": "inplace",
        "label": "uint256",
        "numberOfBytes": "32"
      },
      "t_uint8": {
        "encoding": "inplace",
        "label": "uint8",
        "numberOfBytes": "1"
      }
    }
  }
}