{
  "address": "0x1015667c5af9B7c9C3f056D2F2Af7624DcC0274C",
  "abi": [
    {
      "inputs": [
        {
          "internalType": "enum ProofVerifierRelayer.DeploymentMode",
          "name": "_deploymentMode",
          "type": "uint8"
        }
      ],
      "stateMutability": "nonpayable",
      "type": "constructor"
    },
    {
      "inputs": [],
      "name": "InvalidSignature",
      "type": "error"
    },
    {
      "inputs": [],
      "name": "RelayedExecutionReverted",
      "type": "error"
    },
    {
      "anonymous": false,
      "inputs": [
        {
          "indexed": false,
          "internalType": "address",
          "name": "previousAdmin",
          "type": "address"
        },
        {
          "indexed": false,
          "internalType": "address",
          "name": "newAdmin",
          "type": "address"
        }
      ],
      "name": "AdminChanged",
      "type": "event"
    },
    {
      "anonymous": false,
      "inputs": [
        {
          "indexed": true,
          "internalType": "address",
          "name": "beacon",
          "type": "address"
        }
      ],
      "name": "BeaconUpgraded",
      "type": "event"
    },
    {
      "anonymous": false,
      "inputs": [
        {
          "indexed": false,
          "internalType": "uint8",
          "name": "version",
          "type": "uint8"
        }
      ],
      "name": "Initialized",
      "type": "event"
    },
    {
      "anonymous": false,
      "inputs": [
        {
          "indexed": true,
          "internalType": "address",
          "name": "previousOwner",
          "type": "address"
        },
        {
          "indexed": true,
          "internalType": "address",
          "name": "newOwner",
          "type": "address"
        }
      ],
      "name": "OwnershipTransferred",
      "type": "event"
    },
    {
      "anonymous": false,
      "inputs": [],
      "name": "Success",
      "type": "event"
    },
    {
      "anonymous": false,
      "inputs": [
        {
          "indexed": true,
          "internalType": "address",
          "name": "implementation",
          "type": "address"
        }
      ],
      "name": "Upgraded",
      "type": "event"
    },
    {
      "inputs": [],
      "name": "getTrustedForwarder",
      "outputs": [
        {
          "internalType": "address",
          "name": "forwarder",
          "type": "address"
        }
      ],
      "stateMutability": "view",
      "type": "function"
    },
    {
      "inputs": [
        {
          "internalType": "address",
          "name": "_publicPkpAddress",
          "type": "address"
        }
      ],
      "name": "initialize",
      "outputs": [],
      "stateMutability": "nonpayable",
      "type": "function"
    },
    {
      "inputs": [
        {
          "internalType": "address",
          "name": "forwarder",
          "type": "address"
        }
      ],
      "name": "isTrustedForwarder",
      "outputs": [
        {
          "internalType": "bool",
          "name": "",
          "type": "bool"
        }
      ],
      "stateMutability": "view",
      "type": "function"
    },
    {
      "inputs": [],
      "name": "owner",
      "outputs": [
        {
          "internalType": "address",
          "name": "",
          "type": "address"
        }
      ],
      "stateMutability": "view",
      "type": "function"
    },
    {
      "inputs": [
        {
          "internalType": "bytes32",
          "name": "blockNumber",
          "type": "bytes32"
        },
        {
          "internalType": "address",
          "name": "to",
          "type": "address"
        },
        {
          "internalType": "bytes",
          "name": "publicSignal",
          "type": "bytes"
        },
        {
          "internalType": "bytes",
          "name": "identityProof",
          "type": "bytes"
        },
        {
          "internalType": "bytes",
          "name": "membershipProof",
          "type": "bytes"
        },
        {
          "internalType": "bytes",
          "name": "data",
          "type": "bytes"
        }
      ],
      "name": "proveAndRelay",
      "outputs": [],
      "stateMutability": "nonpayable",
      "type": "function"
    },
    {
      "inputs": [],
      "name": "proxiableUUID",
      "outputs": [
        {
          "internalType": "bytes32",
          "name": "",
          "type": "bytes32"
        }
      ],
      "stateMutability": "view",
      "type": "function"
    },
    {
      "inputs": [],
      "name": "publicPkpAddress",
      "outputs": [
        {
          "internalType": "address",
          "name": "",
          "type": "address"
        }
      ],
      "stateMutability": "view",
      "type": "function"
    },
    {
      "inputs": [],
      "name": "renounceOwnership",
      "outputs": [],
      "stateMutability": "nonpayable",
      "type": "function"
    },
    {
      "inputs": [
        {
          "internalType": "address",
          "name": "newOwner",
          "type": "address"
        }
      ],
      "name": "transferOwnership",
      "outputs": [],
      "stateMutability": "nonpayable",
      "type": "function"
    },
    {
      "inputs": [
        {
          "internalType": "address",
          "name": "newImplementation",
          "type": "address"
        }
      ],
      "name": "upgradeTo",
      "outputs": [],
      "stateMutability": "nonpayable",
      "type": "function"
    },
    {
      "inputs": [
        {
          "internalType": "address",
          "name": "newImplementation",
          "type": "address"
        },
        {
          "internalType": "bytes",
          "name": "data",
          "type": "bytes"
        }
      ],
      "name": "upgradeToAndCall",
      "outputs": [],
      "stateMutability": "payable",
      "type": "function"
    }
  ],
  "transactionHash": "0x8165c2d059a991ca41eabbe7b467a2c417fcac6264b13ea4c6939117236a70d4",
  "args": [
    1
  ],
  "numDeployments": 1,
  "solcInputHash": "b9cd93695773d1eb3861768572dd2045",
  "bytecode": "0x60a06040523073ffffffffffffffffffffffffffffffffffffffff1660809073ffffffffffffffffffffffffffffffffffffffff168152503480156200004457600080fd5b506040516200217b3803806200217b83398181016040528101906200006a9190620001ac565b60006001811115620000815762000080620001de565b5b816001811115620000975762000096620001de565b5b03620000ae57620000ad620000b560201b60201c565b5b50620002f1565b600060159054906101000a900460ff161562000108576040517f08c379a0000000000000000000000000000000000000000000000000000000008152600401620000ff9062000294565b60405180910390fd5b60ff8016600060149054906101000a900460ff1660ff1610156200017d5760ff600060146101000a81548160ff021916908360ff1602179055507f7f26b83ff96e1f2b6a682f133852f6798a09c465da95921460cefb384740249860ff604051620001749190620002d4565b60405180910390a15b565b600080fd5b600281106200019257600080fd5b50565b600081519050620001a68162000184565b92915050565b600060208284031215620001c557620001c46200017f565b5b6000620001d58482850162000195565b91505092915050565b7f4e487b7100000000000000000000000000000000000000000000000000000000600052602160045260246000fd5b600082825260208201905092915050565b7f496e697469616c697a61626c653a20636f6e747261637420697320696e69746960008201527f616c697a696e6700000000000000000000000000000000000000000000000000602082015250565b60006200027c6027836200020d565b915062000289826200021e565b604082019050919050565b60006020820190508181036000830152620002af816200026d565b9050919050565b600060ff82169050919050565b620002ce81620002b6565b82525050565b6000602082019050620002eb6000830184620002c3565b92915050565b608051611e526200032960003960008181610263015281816102f1015281816103eb0152818161047901526105290152611e526000f3fe60806040526004361061009c5760003560e01c8063715018a611610064578063715018a6146101795780638da5cb5b14610190578063c4d66de8146101bb578063ce1b815f146101e4578063dd37019d1461020f578063f2fde38b146102385761009c565b80633659cfe6146100a15780634f1ef286146100ca57806352d1902d146100e6578063572b6c05146101115780636a8ce5e31461014e575b600080fd5b3480156100ad57600080fd5b506100c860048036038101906100c391906111fb565b610261565b005b6100e460048036038101906100df919061136e565b6103e9565b005b3480156100f257600080fd5b506100fb610525565b60405161010891906113e3565b60405180910390f35b34801561011d57600080fd5b50610138600480360381019061013391906111fb565b6105de565b6040516101459190611419565b60405180910390f35b34801561015a57600080fd5b50610163610637565b6040516101709190611443565b60405180910390f35b34801561018557600080fd5b5061018e61065d565b005b34801561019c57600080fd5b506101a5610671565b6040516101b29190611443565b60405180910390f35b3480156101c757600080fd5b506101e260048036038101906101dd91906111fb565b61069b565b005b3480156101f057600080fd5b506101f9610818565b6040516102069190611443565b60405180910390f35b34801561021b57600080fd5b506102366004803603810190610231919061148a565b610841565b005b34801561024457600080fd5b5061025f600480360381019061025a91906111fb565b6109b8565b005b7f000000000000000000000000000000000000000000000000000000000000000073ffffffffffffffffffffffffffffffffffffffff163073ffffffffffffffffffffffffffffffffffffffff16036102ef576040517f08c379a00000000000000000000000000000000000000000000000000000000081526004016102e69061160a565b60405180910390fd5b7f000000000000000000000000000000000000000000000000000000000000000073ffffffffffffffffffffffffffffffffffffffff1661032e610a3b565b73ffffffffffffffffffffffffffffffffffffffff1614610384576040517f08c379a000000000000000000000000000000000000000000000000000000000815260040161037b9061169c565b60405180910390fd5b61038d81610a92565b6103e681600067ffffffffffffffff8111156103ac576103ab611243565b5b6040519080825280601f01601f1916602001820160405280156103de5781602001600182028036833780820191505090505b506000610a9d565b50565b7f000000000000000000000000000000000000000000000000000000000000000073ffffffffffffffffffffffffffffffffffffffff163073ffffffffffffffffffffffffffffffffffffffff1603610477576040517f08c379a000000000000000000000000000000000000000000000000000000000815260040161046e9061160a565b60405180910390fd5b7f000000000000000000000000000000000000000000000000000000000000000073ffffffffffffffffffffffffffffffffffffffff166104b6610a3b565b73ffffffffffffffffffffffffffffffffffffffff161461050c576040517f08c379a00000000000000000000000000000000000000000000000000000000081526004016105039061169c565b60405180910390fd5b61051582610a92565b61052182826001610a9d565b5050565b60007f000000000000000000000000000000000000000000000000000000000000000073ffffffffffffffffffffffffffffffffffffffff163073ffffffffffffffffffffffffffffffffffffffff16146105b5576040517f08c379a00000000000000000000000000000000000000000000000000000000081526004016105ac9061172e565b60405180910390fd5b7f360894a13ba1a3210667c828492db98dca3e2076cc3735a920a3ca505d382bbc60001b905090565b60008060009054906101000a900473ffffffffffffffffffffffffffffffffffffffff1673ffffffffffffffffffffffffffffffffffffffff168273ffffffffffffffffffffffffffffffffffffffff16149050919050565b60c960009054906101000a900473ffffffffffffffffffffffffffffffffffffffff1681565b610665610c0b565b61066f6000610c89565b565b6000603360009054906101000a900473ffffffffffffffffffffffffffffffffffffffff16905090565b60008060159054906101000a900460ff161590508080156106ce57506001600060149054906101000a900460ff1660ff16105b806106fd57506106dd30610d4f565b1580156106fc57506001600060149054906101000a900460ff1660ff16145b5b61073c576040517f08c379a0000000000000000000000000000000000000000000000000000000008152600401610733906117c0565b60405180910390fd5b6001600060146101000a81548160ff021916908360ff160217905550801561077a576001600060156101000a81548160ff0219169083151502179055505b8160c960006101000a81548173ffffffffffffffffffffffffffffffffffffffff021916908373ffffffffffffffffffffffffffffffffffffffff16021790555080156108145760008060156101000a81548160ff0219169083151502179055507f7f26b83ff96e1f2b6a682f133852f6798a09c465da95921460cefb3847402498600160405161080b9190611832565b60405180910390a15b5050565b60008060009054906101000a900473ffffffffffffffffffffffffffffffffffffffff16905090565b6000838786604051602001610858939291906118df565b604051602081830303815290604052805190602001209050600061087c8285610d72565b50905060c960009054906101000a900473ffffffffffffffffffffffffffffffffffffffff1673ffffffffffffffffffffffffffffffffffffffff168173ffffffffffffffffffffffffffffffffffffffff1603610906576040517f8baa579f00000000000000000000000000000000000000000000000000000000815260040160405180910390fd5b6000858051906020012090508773ffffffffffffffffffffffffffffffffffffffff166371f898f38585846040518463ffffffff1660e01b815260040161094f9392919061195e565b600060405180830381600087803b15801561096957600080fd5b505af115801561097d573d6000803e3d6000fd5b505050507f395a9ab3d1230297d931e1fa224ca597ca0e45f620c1aeb74b512bfcc6f66aab60405160405180910390a1505050505050505050565b6109c0610c0b565b600073ffffffffffffffffffffffffffffffffffffffff168173ffffffffffffffffffffffffffffffffffffffff1603610a2f576040517f08c379a0000000000000000000000000000000000000000000000000000000008152600401610a2690611a0e565b60405180910390fd5b610a3881610c89565b50565b6000610a697f360894a13ba1a3210667c828492db98dca3e2076cc3735a920a3ca505d382bbc60001b610dc3565b60000160009054906101000a900473ffffffffffffffffffffffffffffffffffffffff16905090565b610a9a610c0b565b50565b610ac97f4910fdfa16fed3260ed0e7147f7cc6da11a60208b5b9406d12a635614ffd914360001b610dcd565b60000160009054906101000a900460ff1615610aed57610ae883610dd7565b610c06565b8273ffffffffffffffffffffffffffffffffffffffff166352d1902d6040518163ffffffff1660e01b8152600401602060405180830381865afa925050508015610b5557506040513d601f19601f82011682018060405250810190610b529190611a43565b60015b610b94576040517f08c379a0000000000000000000000000000000000000000000000000000000008152600401610b8b90611ae2565b60405180910390fd5b7f360894a13ba1a3210667c828492db98dca3e2076cc3735a920a3ca505d382bbc60001b8114610bf9576040517f08c379a0000000000000000000000000000000000000000000000000000000008152600401610bf090611b74565b60405180910390fd5b50610c05838383610e90565b5b505050565b610c13610ebc565b73ffffffffffffffffffffffffffffffffffffffff16610c31610671565b73ffffffffffffffffffffffffffffffffffffffff1614610c87576040517f08c379a0000000000000000000000000000000000000000000000000000000008152600401610c7e90611be0565b60405180910390fd5b565b6000603360009054906101000a900473ffffffffffffffffffffffffffffffffffffffff16905081603360006101000a81548173ffffffffffffffffffffffffffffffffffffffff021916908373ffffffffffffffffffffffffffffffffffffffff1602179055508173ffffffffffffffffffffffffffffffffffffffff168173ffffffffffffffffffffffffffffffffffffffff167f8be0079c531659141344cd1fd0a4f28419497f9722a3daafe3b4186f6b6457e060405160405180910390a35050565b6000808273ffffffffffffffffffffffffffffffffffffffff163b119050919050565b6000806041835103610db35760008060006020860151925060408601519150606086015160001a9050610da787828585610ecb565b94509450505050610dbc565b60006002915091505b9250929050565b6000819050919050565b6000819050919050565b610de081610d4f565b610e1f576040517f08c379a0000000000000000000000000000000000000000000000000000000008152600401610e1690611c72565b60405180910390fd5b80610e4c7f360894a13ba1a3210667c828492db98dca3e2076cc3735a920a3ca505d382bbc60001b610dc3565b60000160006101000a81548173ffffffffffffffffffffffffffffffffffffffff021916908373ffffffffffffffffffffffffffffffffffffffff16021790555050565b610e9983610fad565b600082511180610ea65750805b15610eb757610eb58383610ffc565b505b505050565b6000610ec66110e0565b905090565b6000807f7fffffffffffffffffffffffffffffff5d576e7357a4501ddfe92f46681b20a08360001c1115610f06576000600391509150610fa4565b600060018787878760405160008152602001604052604051610f2b9493929190611ca1565b6020604051602081039080840390855afa158015610f4d573d6000803e3d6000fd5b505050602060405103519050600073ffffffffffffffffffffffffffffffffffffffff168173ffffffffffffffffffffffffffffffffffffffff1603610f9b57600060019250925050610fa4565b80600092509250505b94509492505050565b610fb681610dd7565b8073ffffffffffffffffffffffffffffffffffffffff167fbc7cd75a20ee27fd9adebab32041f755214dbc6bffa90cc0225b39da2e5c2d3b60405160405180910390a250565b606061100783610d4f565b611046576040517f08c379a000000000000000000000000000000000000000000000000000000000815260040161103d90611d58565b60405180910390fd5b6000808473ffffffffffffffffffffffffffffffffffffffff168460405161106e9190611d78565b600060405180830381855af49150503d80600081146110a9576040519150601f19603f3d011682016040523d82523d6000602084013e6110ae565b606091505b50915091506110d68282604051806060016040528060278152602001611df660279139611117565b9250505092915050565b600060146000369050101580156110fc57506110fb336105de565b5b1561111057601436033560601c9050611114565b3390505b90565b6060831561112757829050611132565b6111318383611139565b5b9392505050565b60008251111561114c5781518083602001fd5b806040517f08c379a00000000000000000000000000000000000000000000000000000000081526004016111809190611dd3565b60405180910390fd5b6000604051905090565b600080fd5b600080fd5b600073ffffffffffffffffffffffffffffffffffffffff82169050919050565b60006111c88261119d565b9050919050565b6111d8816111bd565b81146111e357600080fd5b50565b6000813590506111f5816111cf565b92915050565b60006020828403121561121157611210611193565b5b600061121f848285016111e6565b91505092915050565b600080fd5b600080fd5b6000601f19601f8301169050919050565b7f4e487b7100000000000000000000000000000000000000000000000000000000600052604160045260246000fd5b61127b82611232565b810181811067ffffffffffffffff8211171561129a57611299611243565b5b80604052505050565b60006112ad611189565b90506112b98282611272565b919050565b600067ffffffffffffffff8211156112d9576112d8611243565b5b6112e282611232565b9050602081019050919050565b82818337600083830152505050565b600061131161130c846112be565b6112a3565b90508281526020810184848401111561132d5761132c61122d565b5b6113388482856112ef565b509392505050565b600082601f83011261135557611354611228565b5b81356113658482602086016112fe565b91505092915050565b6000806040838503121561138557611384611193565b5b6000611393858286016111e6565b925050602083013567ffffffffffffffff8111156113b4576113b3611198565b5b6113c085828601611340565b9150509250929050565b6000819050919050565b6113dd816113ca565b82525050565b60006020820190506113f860008301846113d4565b92915050565b60008115159050919050565b611413816113fe565b82525050565b600060208201905061142e600083018461140a565b92915050565b61143d816111bd565b82525050565b60006020820190506114586000830184611434565b92915050565b611467816113ca565b811461147257600080fd5b50565b6000813590506114848161145e565b92915050565b60008060008060008060c087890312156114a7576114a6611193565b5b60006114b589828a01611475565b96505060206114c689828a016111e6565b955050604087013567ffffffffffffffff8111156114e7576114e6611198565b5b6114f389828a01611340565b945050606087013567ffffffffffffffff81111561151457611513611198565b5b61152089828a01611340565b935050608087013567ffffffffffffffff81111561154157611540611198565b5b61154d89828a01611340565b92505060a087013567ffffffffffffffff81111561156e5761156d611198565b5b61157a89828a01611340565b9150509295509295509295565b600082825260208201905092915050565b7f46756e6374696f6e206d7573742062652063616c6c6564207468726f7567682060008201527f64656c656761746563616c6c0000000000000000000000000000000000000000602082015250565b60006115f4602c83611587565b91506115ff82611598565b604082019050919050565b60006020820190508181036000830152611623816115e7565b9050919050565b7f46756e6374696f6e206d7573742062652063616c6c6564207468726f7567682060008201527f6163746976652070726f78790000000000000000000000000000000000000000602082015250565b6000611686602c83611587565b91506116918261162a565b604082019050919050565b600060208201905081810360008301526116b581611679565b9050919050565b7f555550535570677261646561626c653a206d757374206e6f742062652063616c60008201527f6c6564207468726f7567682064656c656761746563616c6c0000000000000000602082015250565b6000611718603883611587565b9150611723826116bc565b604082019050919050565b600060208201905081810360008301526117478161170b565b9050919050565b7f496e697469616c697a61626c653a20636f6e747261637420697320616c72656160008201527f647920696e697469616c697a6564000000000000000000000000000000000000602082015250565b60006117aa602e83611587565b91506117b58261174e565b604082019050919050565b600060208201905081810360008301526117d98161179d565b9050919050565b6000819050919050565b600060ff82169050919050565b6000819050919050565b600061181c611817611812846117e0565b6117f7565b6117ea565b9050919050565b61182c81611801565b82525050565b60006020820190506118476000830184611823565b92915050565b600081519050919050565b600081905092915050565b60005b83811015611881578082015181840152602081019050611866565b60008484015250505050565b60006118988261184d565b6118a28185611858565b93506118b2818560208601611863565b80840191505092915050565b6000819050919050565b6118d96118d4826113ca565b6118be565b82525050565b60006118eb828661188d565b91506118f782856118c8565b602082019150611907828461188d565b9150819050949350505050565b600082825260208201905092915050565b60006119308261184d565b61193a8185611914565b935061194a818560208601611863565b61195381611232565b840191505092915050565b600060608201905081810360008301526119788186611925565b905061198760208301856113d4565b61199460408301846113d4565b949350505050565b7f4f776e61626c653a206e6577206f776e657220697320746865207a65726f206160008201527f6464726573730000000000000000000000000000000000000000000000000000602082015250565b60006119f8602683611587565b9150611a038261199c565b604082019050919050565b60006020820190508181036000830152611a27816119eb565b9050919050565b600081519050611a3d8161145e565b92915050565b600060208284031215611a5957611a58611193565b5b6000611a6784828501611a2e565b91505092915050565b7f45524331393637557067726164653a206e657720696d706c656d656e7461746960008201527f6f6e206973206e6f742055555053000000000000000000000000000000000000602082015250565b6000611acc602e83611587565b9150611ad782611a70565b604082019050919050565b60006020820190508181036000830152611afb81611abf565b9050919050565b7f45524331393637557067726164653a20756e737570706f727465642070726f7860008201527f6961626c65555549440000000000000000000000000000000000000000000000602082015250565b6000611b5e602983611587565b9150611b6982611b02565b604082019050919050565b60006020820190508181036000830152611b8d81611b51565b9050919050565b7f4f776e61626c653a2063616c6c6572206973206e6f7420746865206f776e6572600082015250565b6000611bca602083611587565b9150611bd582611b94565b602082019050919050565b60006020820190508181036000830152611bf981611bbd565b9050919050565b7f455243313936373a206e657720696d706c656d656e746174696f6e206973206e60008201527f6f74206120636f6e747261637400000000000000000000000000000000000000602082015250565b6000611c5c602d83611587565b9150611c6782611c00565b604082019050919050565b60006020820190508181036000830152611c8b81611c4f565b9050919050565b611c9b816117ea565b82525050565b6000608082019050611cb660008301876113d4565b611cc36020830186611c92565b611cd060408301856113d4565b611cdd60608301846113d4565b95945050505050565b7f416464726573733a2064656c65676174652063616c6c20746f206e6f6e2d636f60008201527f6e74726163740000000000000000000000000000000000000000000000000000602082015250565b6000611d42602683611587565b9150611d4d82611ce6565b604082019050919050565b60006020820190508181036000830152611d7181611d35565b9050919050565b6000611d84828461188d565b915081905092915050565b600081519050919050565b6000611da582611d8f565b611daf8185611587565b9350611dbf818560208601611863565b611dc881611232565b840191505092915050565b60006020820190508181036000830152611ded8184611d9a565b90509291505056fe416464726573733a206c6f772d6c6576656c2064656c65676174652063616c6c206661696c6564a26469706673582212207643684e76bb4892ab4f99eaf439f57321183a2b8ae3ff7fe1010c6f4a62755c64736f6c63430008130033",
  "devdoc": {
    "author": "Mihirsinh Parmar from Curve Labs",
    "events": {
      "AdminChanged(address,address)": {
        "details": "Emitted when the admin account has changed."
      },
      "BeaconUpgraded(address)": {
        "details": "Emitted when the beacon is upgraded."
      },
      "Initialized(uint8)": {
        "details": "Triggered when the contract has been initialized or reinitialized."
      },
      "Upgraded(address)": {
        "details": "Emitted when the implementation is upgraded."
      }
    },
    "kind": "dev",
    "methods": {
      "getTrustedForwarder()": {
        "returns": {
          "forwarder": "The address of the Forwarder contract that is being used."
        }
      },
      "isTrustedForwarder(address)": {
        "params": {
          "forwarder": "The address of the Forwarder contract that is being used."
        },
        "returns": {
          "_0": "isTrustedForwarder `true` if the Forwarder is trusted to forward relayed transactions by this Recipient."
        }
      },
      "owner()": {
        "details": "Returns the address of the current owner."
      },
      "proxiableUUID()": {
        "details": "Implementation of the ERC1822 {proxiableUUID} function. This returns the storage slot used by the implementation. It is used to validate the implementation's compatibility when performing an upgrade. IMPORTANT: A proxy pointing at a proxiable contract should not be considered proxiable itself, because this risks bricking a proxy that upgrades to it, by delegating to itself until out of gas. Thus it is critical that this function revert if invoked through a proxy. This is guaranteed by the `notDelegated` modifier."
      },
      "renounceOwnership()": {
        "details": "Leaves the contract without owner. It will not be possible to call `onlyOwner` functions anymore. Can only be called by the current owner. NOTE: Renouncing ownership will leave the contract without an owner, thereby removing any functionality that is only available to the owner."
      },
      "transferOwnership(address)": {
        "details": "Transfers ownership of the contract to a new account (`newOwner`). Can only be called by the current owner."
      },
      "upgradeTo(address)": {
        "details": "Upgrade the implementation of the proxy to `newImplementation`. Calls {_authorizeUpgrade}. Emits an {Upgraded} event."
      },
      "upgradeToAndCall(address,bytes)": {
        "details": "Upgrade the implementation of the proxy to `newImplementation`, and subsequently execute the function call encoded in `data`. Calls {_authorizeUpgrade}. Emits an {Upgraded} event."
      }
    },
    "title": "Proof Verifier",
    "version": 1
  },
  "userdoc": {
    "kind": "user",
    "methods": {
      "getTrustedForwarder()": {
        "notice": ":warning: **Warning** :warning: The Forwarder can have a full control over your Recipient. Only trust verified Forwarder.Method is not a required method to allow Recipients to trust multiple Forwarders. Not recommended yet."
      },
      "isTrustedForwarder(address)": {
        "notice": ":warning: **Warning** :warning: The Forwarder can have a full control over your Recipient. Only trust verified Forwarder."
      }
    },
    "version": 1
  },
  "storageLayout": {
    "storage": [
      {
        "astId": 7,
        "contract": "contracts/ProofVerifierRelayer.sol:ProofVerifierRelayer",
        "label": "_trustedForwarder",
        "offset": 0,
        "slot": "0",
        "type": "t_address"
      },
      {
        "astId": 654,
        "contract": "contracts/ProofVerifierRelayer.sol:ProofVerifierRelayer",
        "label": "_initialized",
        "offset": 20,
        "slot": "0",
        "type": "t_uint8"
      },
      {
        "astId": 657,
        "contract": "contracts/ProofVerifierRelayer.sol:ProofVerifierRelayer",
        "label": "_initializing",
        "offset": 21,
        "slot": "0",
        "type": "t_bool"
      },
      {
        "astId": 1277,
        "contract": "contracts/ProofVerifierRelayer.sol:ProofVerifierRelayer",
        "label": "__gap",
        "offset": 0,
        "slot": "1",
        "type": "t_array(t_uint256)50_storage"
      },
      {
        "astId": 137,
        "contract": "contracts/ProofVerifierRelayer.sol:ProofVerifierRelayer",
        "label": "_owner",
        "offset": 0,
        "slot": "51",
        "type": "t_address"
      },
      {
        "astId": 257,
        "contract": "contracts/ProofVerifierRelayer.sol:ProofVerifierRelayer",
        "label": "__gap",
        "offset": 0,
        "slot": "52",
        "type": "t_array(t_uint256)49_storage"
      },
      {
        "astId": 636,
        "contract": "contracts/ProofVerifierRelayer.sol:ProofVerifierRelayer",
        "label": "__gap",
        "offset": 0,
        "slot": "101",
        "type": "t_array(t_uint256)50_storage"
      },
      {
        "astId": 951,
        "contract": "contracts/ProofVerifierRelayer.sol:ProofVerifierRelayer",
        "label": "__gap",
        "offset": 0,
        "slot": "151",
        "type": "t_array(t_uint256)50_storage"
      },
      {
        "astId": 2924,
        "contract": "contracts/ProofVerifierRelayer.sol:ProofVerifierRelayer",
        "label": "publicPkpAddress",
        "offset": 0,
        "slot": "201",
        "type": "t_address"
      }
    ],
    "types": {
      "t_address": {
        "encoding": "inplace",
        "label": "address",
        "numberOfBytes": "20"
      },
      "t_array(t_uint256)49_storage": {
        "base": "t_uint256",
        "encoding": "inplace",
        "label": "uint256[49]",
        "numberOfBytes": "1568"
      },
      "t_array(t_uint256)50_storage": {
        "base": "t_uint256",
        "encoding": "inplace",
        "label": "uint256[50]",
        "numberOfBytes": "1600"
      },
      "t_bool": {
        "encoding": "inplace",
        "label": "bool",
        "numberOfBytes": "1"
      },
      "t_uint256": {
        "encoding": "inplace",
        "label": "uint256",
        "numberOfBytes": "32"
      },
      "t_uint8": {
        "encoding": "inplace",
        "label": "uint8",
        "numberOfBytes": "1"
      }
    }
  }
}