{
  "address": "0x7331B8029e286fcDBc24a95125566eeC49ceE46b",
  "abi": [
    {
      "inputs": [
        {
          "internalType": "address",
          "name": "_tokenAddress",
          "type": "address"
        },
        {
          "internalType": "address",
          "name": "_trustedProofVerifier",
          "type": "address"
        }
      ],
      "stateMutability": "nonpayable",
      "type": "constructor"
    },
    {
      "inputs": [
        {
          "internalType": "bytes32",
          "name": "usedNullifierHash",
          "type": "bytes32"
        }
      ],
      "name": "AlreadyVoteCasted",
      "type": "error"
    },
    {
      "inputs": [
        {
          "internalType": "address",
          "name": "_unknownProofVerifier",
          "type": "address"
        }
      ],
      "name": "UnknownProofVerifier",
      "type": "error"
    },
    {
      "inputs": [
        {
          "internalType": "bytes",
          "name": "data",
          "type": "bytes"
        },
        {
          "internalType": "bytes32",
          "name": "nullifierHash",
          "type": "bytes32"
        },
        {
          "internalType": "bytes32",
          "name": "identityHash",
          "type": "bytes32"
        }
      ],
      "name": "handleRelay",
      "outputs": [],
      "stateMutability": "nonpayable",
      "type": "function"
    },
    {
      "inputs": [
        {
          "internalType": "bytes32",
          "name": "",
          "type": "bytes32"
        }
      ],
      "name": "hashesVoted",
      "outputs": [
        {
          "internalType": "bool",
          "name": "",
          "type": "bool"
        }
      ],
      "stateMutability": "view",
      "type": "function"
    },
    {
      "inputs": [],
      "name": "noVotes",
      "outputs": [
        {
          "internalType": "uint256",
          "name": "",
          "type": "uint256"
        }
      ],
      "stateMutability": "view",
      "type": "function"
    },
    {
      "inputs": [],
      "name": "tokenAddress",
      "outputs": [
        {
          "internalType": "address",
          "name": "",
          "type": "address"
        }
      ],
      "stateMutability": "view",
      "type": "function"
    },
    {
      "inputs": [],
      "name": "trustedProofVerifier",
      "outputs": [
        {
          "internalType": "address",
          "name": "",
          "type": "address"
        }
      ],
      "stateMutability": "view",
      "type": "function"
    },
    {
      "inputs": [],
      "name": "yesVotes",
      "outputs": [
        {
          "internalType": "uint256",
          "name": "",
          "type": "uint256"
        }
      ],
      "stateMutability": "view",
      "type": "function"
    }
  ],
  "transactionHash": "0x352f19cd35eebd437f28317afec7726d5729e7d21b428571fdf7bd1ff37b82e2",
  "args": [
    "0x57f1887a8BF19b14fC0dF6Fd9B2acc9Af147eA85",
    "0x1015667c5af9B7c9C3f056D2F2Af7624DcC0274C"
  ],
  "numDeployments": 1,
  "solcInputHash": "262a9187cf835cf49cea5b3d5a778050",
  "bytecode": "0x608060405234801561001057600080fd5b506040516108c03803806108c08339818101604052810190610032919061011f565b80806000806101000a81548173ffffffffffffffffffffffffffffffffffffffff021916908373ffffffffffffffffffffffffffffffffffffffff1602179055505081600160006101000a81548173ffffffffffffffffffffffffffffffffffffffff021916908373ffffffffffffffffffffffffffffffffffffffff160217905550505061015f565b600080fd5b600073ffffffffffffffffffffffffffffffffffffffff82169050919050565b60006100ec826100c1565b9050919050565b6100fc816100e1565b811461010757600080fd5b50565b600081519050610119816100f3565b92915050565b60008060408385031215610136576101356100bc565b5b60006101448582860161010a565b92505060206101558582860161010a565b9150509250929050565b6107528061016e6000396000f3fe608060405234801561001057600080fd5b50600436106100625760003560e01c8063648f914c1461006757806371f898f3146100975780639d76ea58146100b3578063b5b47f42146100d1578063bf21a264146100ef578063fb286c651461010d575b600080fd5b610081600480360381019061007c919061037a565b61012b565b60405161008e91906103c2565b60405180910390f35b6100b160048036038101906100ac9190610523565b61014b565b005b6100bb6101f0565b6040516100c891906105d3565b60405180910390f35b6100d9610216565b6040516100e69190610607565b60405180910390f35b6100f761021c565b60405161010491906105d3565b60405180910390f35b610115610240565b6040516101229190610607565b60405180910390f35b60046020528060005260406000206000915054906101000a900460ff1681565b610153610246565b6004600083815260200190815260200160002060009054906101000a900460ff16156101b657816040517ffe80a91e0000000000000000000000000000000000000000000000000000000081526004016101ad9190610631565b60405180910390fd5b60016004600084815260200190815260200160002060006101000a81548160ff0219169083151502179055506101eb836102d8565b505050565b600160009054906101000a900473ffffffffffffffffffffffffffffffffffffffff1681565b60035481565b60008054906101000a900473ffffffffffffffffffffffffffffffffffffffff1681565b60025481565b3373ffffffffffffffffffffffffffffffffffffffff1660008054906101000a900473ffffffffffffffffffffffffffffffffffffffff1673ffffffffffffffffffffffffffffffffffffffff16146102d657336040517f473751350000000000000000000000000000000000000000000000000000000081526004016102cd91906105d3565b60405180910390fd5b565b6000818060200190518101906102ee9190610678565b905080156103135760026000815480929190610309906106d4565b919050555061032c565b60036000815480929190610326906106d4565b91905055505b5050565b6000604051905090565b600080fd5b600080fd5b6000819050919050565b61035781610344565b811461036257600080fd5b50565b6000813590506103748161034e565b92915050565b6000602082840312156103905761038f61033a565b5b600061039e84828501610365565b91505092915050565b60008115159050919050565b6103bc816103a7565b82525050565b60006020820190506103d760008301846103b3565b92915050565b600080fd5b600080fd5b6000601f19601f8301169050919050565b7f4e487b7100000000000000000000000000000000000000000000000000000000600052604160045260246000fd5b610430826103e7565b810181811067ffffffffffffffff8211171561044f5761044e6103f8565b5b80604052505050565b6000610462610330565b905061046e8282610427565b919050565b600067ffffffffffffffff82111561048e5761048d6103f8565b5b610497826103e7565b9050602081019050919050565b82818337600083830152505050565b60006104c66104c184610473565b610458565b9050828152602081018484840111156104e2576104e16103e2565b5b6104ed8482856104a4565b509392505050565b600082601f83011261050a576105096103dd565b5b813561051a8482602086016104b3565b91505092915050565b60008060006060848603121561053c5761053b61033a565b5b600084013567ffffffffffffffff81111561055a5761055961033f565b5b610566868287016104f5565b935050602061057786828701610365565b925050604061058886828701610365565b9150509250925092565b600073ffffffffffffffffffffffffffffffffffffffff82169050919050565b60006105bd82610592565b9050919050565b6105cd816105b2565b82525050565b60006020820190506105e860008301846105c4565b92915050565b6000819050919050565b610601816105ee565b82525050565b600060208201905061061c60008301846105f8565b92915050565b61062b81610344565b82525050565b60006020820190506106466000830184610622565b92915050565b610655816103a7565b811461066057600080fd5b50565b6000815190506106728161064c565b92915050565b60006020828403121561068e5761068d61033a565b5b600061069c84828501610663565b91505092915050565b7f4e487b7100000000000000000000000000000000000000000000000000000000600052601160045260246000fd5b60006106df826105ee565b91507fffffffffffffffffffffffffffffffffffffffffffffffffffffffffffffffff8203610711576107106106a5565b5b60018201905091905056fea26469706673582212205d669ca97dc75c78f43d42de4d1c6d2041503392361d8e7833588dcfd3dc5e8e64736f6c63430008130033",
  "devdoc": {
    "kind": "dev",
    "methods": {},
    "version": 1
  },
  "userdoc": {
    "kind": "user",
    "methods": {},
    "version": 1
  },
  "storageLayout": {
    "storage": [
      {
        "astId": 4244,
        "contract": "contracts/Testing/Voting.sol:Voting",
        "label": "trustedProofVerifier",
        "offset": 0,
        "slot": "0",
        "type": "t_address"
      },
      {
        "astId": 4493,
        "contract": "contracts/Testing/Voting.sol:Voting",
        "label": "tokenAddress",
        "offset": 0,
        "slot": "1",
        "type": "t_address"
      },
      {
        "astId": 4495,
        "contract": "contracts/Testing/Voting.sol:Voting",
        "label": "yesVotes",
        "offset": 0,
        "slot": "2",
        "type": "t_uint256"
      },
      {
        "astId": 4497,
        "contract": "contracts/Testing/Voting.sol:Voting",
        "label": "noVotes",
        "offset": 0,
        "slot": "3",
        "type": "t_uint256"
      },
      {
        "astId": 4501,
        "contract": "contracts/Testing/Voting.sol:Voting",
        "label": "hashesVoted",
        "offset": 0,
        "slot": "4",
        "type": "t_mapping(t_bytes32,t_bool)"
      }
    ],
    "types": {
      "t_address": {
        "encoding": "inplace",
        "label": "address",
        "numberOfBytes": "20"
      },
      "t_bool": {
        "encoding": "inplace",
        "label": "bool",
        "numberOfBytes": "1"
      },
      "t_bytes32": {
        "encoding": "inplace",
        "label": "bytes32",
        "numberOfBytes": "32"
      },
      "t_mapping(t_bytes32,t_bool)": {
        "encoding": "mapping",
        "key": "t_bytes32",
        "label": "mapping(bytes32 => bool)",
        "numberOfBytes": "32",
        "value": "t_bool"
      },
      "t_uint256": {
        "encoding": "inplace",
        "label": "uint256",
        "numberOfBytes": "32"
      }
    }
  }
}